:100000008316FF2390008312FB2B00308A00040824
:10001000840A8207003430341334CA34013469341A
:100020000034823400340F3400341E34003412346F
:100030002734EF340234E9340334CE3407349834AF
:0A0040000934E5340034F2340134D1
:1004CE00AB01A91F712AA809A909A80A0319A90A2B
:1004DE00AB01AB0A2808A0002908A100A2018E30AA
:1004EE00A3002B08A40007232008A8002108A900B8
:1004FE002208AA000800A1000730A20087160130CA
:10050E00A000220A8C2A0310A00DFF3E031D8A2A8A
:10051E00200821050319992AA730A000A00B952ABF
:10052E0000009D2A5430A000A00B9B2A8312871234
:10053E00A530A000A00BA12AA42A01308312A2028A
:10054E00220A03190800852AAE1FBA2A2C08003C7D
:10055E00AC002D08031C2D0F003CAD002E08031C13
:10056E002E0F803CAE00B11FC92A2F08003CAF00F1
:10057E003008031C300F003CB0003108031C310F53
:10058E00803CB1008030AE068030B10631082E02BC
:10059E00031D080030082D02031D08002F082C0231
:1005AE000800220AA6000130A7000030A800E22AA7
:1005BE000310A70DA80DA60BDF2A2708AD002808EB
:1005CE00AE00220AA6002508A8002408A700F22AD9
:1005DE000310A70DA80DA60BEF2A2E08AA002D08B2
:1005EE00A900A909AA0920082905AB0021082A0596
:1005FE00AC0027082B04A00028082C04A10008003A
:10060E00230803190F2B220821042004031D222B7B
:10061E000030A0000030A1000030A2000800013020
:10062E00A5002508A30701300310A20CA10CA00CF5
:10063E00FF3E031D1B2BFE30220503193D2B162BEF
:10064E000130A5002508A3070130A00700300318CC
:10065E000130A107003003180130A207013003104A
:10066E00A20CA10CA00CFF3E031D362BFF30220561
:10067E000319502B272B02302302031C522B01305F
:10068E00A30201300310A00DA10DA20DFF3E031D0C
:10069E00492BA11F422B23185A2BFF30A0057F3068
:1006AE00A105FF30A2050310A30C2308A500A60187
:1006BE00A70110300310A50DA60DA70DFF3E031DBB
:1006CE00612B2508A0042608A1042708A2042408EB
:1006DE0003190800A2170800B801B9018316910189
:1006EE0003308700FF308312BA0064008316811531
:1006FE0001148114011583123908A9003808A800C5
:10070E0067222808AC002908AD002A08AE00B230D6
:10071E00AF00D030B0004030B100AB2203189B2B9D
:10072E0038083904031DF12BB601B70183123A08BC
:10073E00B200B3013208A0003308A1000030A200BD
:10074E00A300031007180314003003180130B4007F
:10075E00B5013408A4003508A500D8222008BA0037
:10076E003A08B200B3013208A0003308A1000130EC
:10077E00A2000030A30003108718031400300318E2
:10078E000130B400B5013408A4003508A500D82204
:10079E002008BA003A0882220D30B300FB30B200B6
:1007AE00B20BD72BB30BD72BDC2B01308312B60732
:1007BE000318B70A0030B7073708803ADF008030D9
:1007CE005F02031DEC2B05303602031C9D2B83129A
:1007DE00B801B9016300000001308312B807031895
:1007EE00B90A0030B907822B8312BB018301732B28
:02400E009C3FD5
:00000001FF
