:100000008316FF2390008312FB2B00308A00040824
:10001000840A82070034CA340134693400348234DB
:100020000034043400341E34003412342734EF34E6
:100030000234E9340334CE34073430341334983482
:0A0040000934E5340034F2340134D1
:1003F000AB01A91F022AA809A909A80A0319A90A79
:10040000AB01AB0A2808A0002908A100A2018E3088
:10041000A3002B08A40001232008A8002108A9009C
:100420002208AA000800A1000730A20087120130AC
:10043000A000220A1D2A0310A00DFF3E031D1B2A47
:100440002008210503192A2AA730A000A00B262A7C
:1004500000002E2A5430A000A00B2C2A83128716ED
:10046000A530A000A00B322A352A01308312A20247
:10047000220A03190800162AA6002108A700013045
:10048000A002200A0319642A2608840083130008A6
:10049000A4000130A2002208A6070830A500250804
:1004A00003193F2A270824060139A3000310A70CCB
:1004B000230803195F2A8C30A2002208A706031024
:1004C000A40C0130A5024F2A27080800AE1F752A88
:1004D0002C08003CAC002D08031C2D0F003CAD0087
:1004E0002E08031C2E0F803CAE00B11F842A2F085B
:1004F000003CAF003008031C300F003CB000310856
:10050000031C310F803CB1008030AE068030B10654
:1005100031082E02031D080030082D02031D0800BB
:100520002F082C020800220AA6000130A700003084
:10053000A8009D2A0310A70DA80DA60B9A2A27082C
:10054000AD002808AE00220AA6002508A80024084D
:10055000A700AD2A0310A70DA80DA60BAA2A2E08E6
:10056000AA002D08A900A909AA0920082905AB009D
:1005700021082A05AC0027082B04A00028082C0419
:10058000A1000800AD002808A0003B08A1002D082C
:100590003C22AB00AC01003013220130AA002A0833
:1005A000AC0704302C02031CCB2A8712D630AA00D9
:1005B000D92ADA2AAA0BD82A000083128716A53076
:1005C000AA00AA0BE12AE42A8312280813222B0886
:1005D00013223B0813220130A802280A0319F82A23
:1005E00028082D07AA002A08840083130008EA2A95
:1005F00087122908031908000130AA002A08BB073E
:10060000080023080319092B220821042004031DD4
:100610001C2B0030A0000030A1000030A200080018
:100620000130A5002508A30701300310A20CA10C7E
:10063000A00CFF3E031D152BFE3022050319372B9E
:10064000102B0130A5002508A3070130A0070030BA
:1006500003180130A107003003180130A207013050
:100660000310A20CA10CA00CFF3E031D302BFF3089
:10067000220503194A2B212B02302302031C4C2B89
:100680000130A30201300310A00DA10DA20DFF3E09
:10069000031D432BA11F3C2B2318542BFF30A00517
:1006A0007F30A105FF30A2050310A30C2308A5008D
:1006B000A601A70110300310A50DA60DA70DFF3E42
:1006C000031D5B2B2508A0042608A1042708A2040B
:1006D000240803190800A2170800B801B9018316FD
:1006E000910103308700FF308312BA006400831643
:1006F000811501148114011583123908A9003808E5
:10070000A800F8212808AC002908AD002A08AE008E
:100710002130AF000B30B0004130B1006622031829
:10072000952B38083904031DF12BB601B70183124C
:100730003A08B200B3013208A0003308A10000302B
:10074000A200A3000310071803140030031801309F
:10075000B400B5013408A4003508A5009322200890
:10076000BA003A08B200B3013208A0003308A10071
:100770000130A2000030A3000310871803140030DA
:1007800003180130B400B5013408A4003508A500F1
:1007900093222008BA00A801A80AA901A90A3A30A0
:1007A000C222640007308312B3005F30B200B20B84
:1007B000D72BB30BD72BDC2B01308312B6070318D2
:1007C000B70A0030B7073708803ADF0080305F0291
:1007D000031DEC2B05303602031C972B8312B80146
:1007E000B9016300000001308312B8070318B90A89
:0E07F0000030B9077C2B8312BB0183016D2BF7
:02400E009C3FD5
:00000001FF
