:100000008316FF2390008312FB2B00308A00040824
:10001000840A8207003430341334CA34013469341A
:100020000034823400340F3400341E34003412346F
:100030002734EF340234E9340334CE3407349834AF
:0A0040000934E5340034F2340134D1
:1006BA00A1000730A20087120130A000220A672B8E
:1006CA000310A00DFF3E031D652B20082105031909
:1006DA00742BA730A000A00B702B0000782B54308D
:1006EA00A000A00B762B83128716A530A000A00BC2
:1006FA007C2B7F2B01308312A202220A03190800E5
:10070A00602B220AA6000130A7000030A800902B17
:10071A000310A70DA80DA60B8D2B2708AD002808DE
:10072A00AE00220AA6002508A8002408A700A02BCC
:10073A000310A70DA80DA60B9D2B2E08AA002D08A5
:10074A00A900A909AA0920082905AB0021082A0538
:10075A00AC0027082B04A00028082C04A1000800DC
:10076A00033083168700FF308312B30083123308E5
:10077A00AF00B0012F08A0003008A1000030A2008D
:10078A00A300031007180314003003180130B10046
:10079A00B2013108A4003208A50086232008B3005C
:1007AA003308AF00B0012F08A0003008A1000130C3
:1007BA00A2000030A30003108718031400300318A6
:1007CA000130B100B2013108A4003208A500862325
:1007DA002008B30033085D238230B000DD30AF005B
:1007EA00AF0BF52BB00BF52BFA2BBB2B8312B401F5
:0407FA008301B52B97
:02400E009C3FD5
:00000001FF
