:100000008316FF2390008312FD2B00308A00040822
:10001000840A82070034CA340134693400348234DB
:100020000034043400341E34003412342734EF34E6
:100030000234E9340334CE34073430341334983482
:0A0040000934E5340034F2340134D1
:10040800AB01A91F0E2AA809A909A80A0319A90A54
:10041800AB01AB0A2808A0002908A100A2018E3070
:10042800A3002B08A40003232008A8002108A90082
:100438002208AA000800A1000730A2008712013094
:10044800A000220A292A0310A00DFF3E031D272A17
:10045800200821050319362AA730A000A00B322A4C
:1004680000003A2A5430A000A00B382A83128716BD
:10047800A530A000A00B3E2A412A01308312A20217
:10048800220A03190800222AA6002108A700013021
:10049800A002200A0319702A260884008313000882
:1004A800A4000130A2002208A6070830A5002508EC
:1004B80003194B2A270824060139A3000310A70CA7
:1004C800230803196B2A8C30A2002208A706031000
:1004D800A40C0130A5025B2A27080800AE1F812A58
:1004E8002C08003CAC002D08031C2D0F003CAD006F
:1004F8002E08031C2E0F803CAE00B11F902A2F0837
:10050800003CAF003008031C300F003CB00031083D
:10051800031C310F803CB1008030AE068030B1063C
:1005280031082E02031D080030082D02031D0800A3
:100538002F082C020800220AA6000130A70000306C
:10054800A800A92A0310A70DA80DA60BA62A2708FC
:10055800AD002808AE00220AA6002508A800240835
:10056800A700B92A0310A70DA80DA60BB62A2E08B6
:10057800AA002D08A900A909AA0920082905AB0085
:1005880021082A05AC0027082B04A00028082C0401
:10059800A1000800AD002808A000A1012D084822EC
:1005A800AB00AC0100301F220130AA002A08AC07BA
:1005B80004302C02031CD62A8712D630AA00E42A5B
:1005C800E52AAA0BE32A000083128716A530AA00A1
:1005D800AA0BEC2AEF2A831228081F222B081F22B5
:1005E8000130A802280A0319012B28082D07AA00A0
:1005F8002A08840083130008F32A871208002308B6
:1006080003190B2B220821042004031D1E2B003084
:10061800A0000030A1000030A20008000130A500B1
:100628002508A30701300310A20CA10CA00CFF3E63
:10063800031D172BFE3022050319392B122B01300D
:10064800A5002508A3070130A007003003180130D2
:10065800A107003003180130A20701300310A20CD3
:10066800A10CA00CFF3E031D322BFF3022050319FD
:100678004C2B232B02302302031C4E2B0130A302E8
:1006880001300310A00DA10DA20DFF3E031D452B47
:10069800A11F3E2B2318562BFF30A0057F30A10544
:1006A800FF30A2050310A30C2308A500A601A7018B
:1006B80010300310A50DA60DA70DFF3E031D5D2BE1
:1006C8002508A0042608A1042708A2042408031961
:1006D8000800A2170800B801B90183169101033078
:1006E8008700FF308312BA00640083168115011455
:1006F8008114011583123908A9003808A8000422BA
:100708002808AC002908AD002A08AE002130AF0047
:100718000B30B0004130B10072220318972B380813
:100728003904031DF32BB601B70183123A08B2004E
:10073800B3013208A0003308A1000030A200A300D2
:10074800031007180314003003180130B400B50172
:100758003408A4003508A5009F222008BA003A08EA
:10076800B200B3013208A0003308A1000130A20092
:100778000030A30003108718031400300318013059
:10078800B400B5013408A4003508A5009F2220084C
:10079800BA00A801A80AA901A90A3A30CE22640021
:1007A80007308312B3005F30B200B20BD92BB30B02
:1007B800D92BDE2B01308312B6070318B70A003095
:1007C800B7073708803ADF0080305F02031DEE2B41
:1007D80005303602031C992B8312B801B901630056
:1007E800000001308312B8070318B90A0030B907AE
:0607F8007E2B83016F2B34
:02400E009C3FD5
:00000001FF
